{"abi":[{"type":"constructor","inputs":[],"stateMutability":"nonpayable"},{"type":"function","name":"decrement","inputs":[],"outputs":[],"stateMutability":"nonpayable"},{"type":"function","name":"getValue","inputs":[],"outputs":[{"name":"","type":"uint256","internalType":"uint256"}],"stateMutability":"view"},{"type":"function","name":"increment","inputs":[],"outputs":[],"stateMutability":"nonpayable"},{"type":"function","name":"owner","inputs":[],"outputs":[{"name":"","type":"address","internalType":"address"}],"stateMutability":"view"},{"type":"function","name":"reset","inputs":[],"outputs":[],"stateMutability":"nonpayable"},{"type":"event","name":"ValueChanged","inputs":[{"name":"newValue","type":"uint256","indexed":false,"internalType":"uint256"}],"anonymous":false}],"bytecode":{"object":"0x608060405234801561001057600080fd5b50600180546001600160a01b03191633179055610282806100326000396000f3fe608060405234801561001057600080fd5b50600436106100575760003560e01c8063209652551461005c5780632baeceb7146100725780638da5cb5b1461007c578063d09de08a146100a7578063d826f88f146100af575b600080fd5b6000546040519081526020015b60405180910390f35b61007a6100b7565b005b60015461008f906001600160a01b031681565b6040516001600160a01b039091168152602001610069565b61007a610169565b61007a61017b565b60008054116101195760405162461bcd60e51b8152602060048201526024808201527f436f756e7465723a2063616e6e6f742064656372656d656e742062656c6f77206044820152637a65726f60e01b60648201526084015b60405180910390fd5b600160008082825461012b9190610220565b90915550506000546040519081527f93fe6d397c74fdf1402a8b72e47b68512f0510d7b98a4bc4cbdf6ac7108b3c59906020015b60405180910390a1565b600160008082825461012b9190610239565b6001546001600160a01b031633146101d55760405162461bcd60e51b815260206004820152601d60248201527f436f756e7465723a206f6e6c79206f776e65722063616e2072657365740000006044820152606401610110565b60008080556040519081527f93fe6d397c74fdf1402a8b72e47b68512f0510d7b98a4bc4cbdf6ac7108b3c599060200161015f565b634e487b7160e01b600052601160045260246000fd5b818103818111156102335761023361020a565b92915050565b808201808211156102335761023361020a56fea26469706673582212204048cca167026c03c6918a131e2db3f977cb365adbb19fff041df3e623a74e4564736f6c63430008130033","linkReferences":{}},"methodIdentifiers":{"decrement()":"2baeceb7","getValue()":"20965255","increment()":"d09de08a","owner()":"8da5cb5b","reset()":"d826f88f"},"id":16}